:04000000BEEF01F05E
:100008005782D9CF27F0DACF28F04304D8A41FD0DD
:1000180000018805D8A40BD055C007F0086A30EC59
:1000280010F08A961DEC13F020EC13F00ED041046A
:10003800D8A409D08851D8A406D0CCC007F0086A43
:10004800F1EC0FF002D07FEC0AF0000E436E420490
:10005800D8A4E7D00001C651C711D8B404D0C60748
:10006800D8A0C70704D0000EC76F000EC66FC3BF65
:1000780009D0C35103E1C205D8A004D0C207D8A053
:10008800C30704D0000EC36F000EC26FC1BF10D0EB
:10009800C151C011BF1103E1BE05D8A009D0FF0EA0
:1000A800BE27FF0EBF23FF0EC023FF0EC12308D0BB
:1000B800000EBE6F000EBF6F000EC06F000EC16F46
:1000C8004ABE10D04A504910481003E14704D8A04E
:1000D80009D0FF0E4726FF0E4822FF0E4922FF0EC9
:1000E8004A2208D0000E476E000E486E000E496E78
:1000F800000E4A6EBDBF10D0BD51BC11BB1103E14B
:10010800BA05D8A009D0FF0EBA27FF0EBB23FF0EF1
:10011800BC23FF0EBD2308D0000EBA6F000EBB6FC4
:10012800000EBC6F000EBD6FB9BF10D0B951B81129
:10013800B71103E1B605D8A009D0FF0EB627FF0E08
:10014800B723FF0EB823FF0EB92308D0000EB66FF1
:10015800000EB76F000EB86F000EB96FB5BF10D0A4
:10016800B551B411B31103E1B205D8A009D0FF0EFF
:10017800B227FF0EB323FF0EB423FF0EB52308D01A
:10018800000EB26F000EB36F000EB46F000EB56FA5
:10019800B1BF10D0B151B011AF1103E1AE05D8A075
:1001A80009D0FF0EAE27FF0EAF23FF0EB023FF0EC0
:1001B800B12308D0000EAE6F000EAF6F000EB06F07
:1001C800000EB16FC5BF09D0C55103E1C405D8A061
:1001D80004D0C407D8A0C50704D0000EC56F000E10
:1001E800C46F52BE09D0525003E15104D8A004D0C4
:1001F8005106D8A0520604D0000E526E000E516E61
:1002080050BE09D0505003E14F04D8A004D04F0687
:10021800D8A0500604D0000E506E000E4F6E000E8F
:10022800426EF2A407D0F90ED76EE40ED66EF294A1
:10023800010E436E9EA007D09E0ECF6E570ECE6E57
:100248009E90010E426E9EA204D09E92010E000165
:10025800896FA4AA84D06CEC12F02A6EA50E2A1815
:10026800D8A418D000018B51D8B403D08A05D8A4DB
:1002780011D0010E466E000E3B6E000E3A6E700EE7
:100288003A24D96E000E3B20DA6E2AC0DFFF3A4AC4
:100298003B2A6AD04604D8A467D0700E3A24D96E97
:1002A800000E3B20DA6E2AC0DFFF3B5055E1050EF9
:1002B8003A5CD8B051D05A0E2A18D8A4E8D7000111
:1002C80071517219296E29507319D8A42AD08A51EC
:1002D800D8B404D0F50E7219D8A410D0000E2B6E25
:1002E800700E2B24D96EDA6A000EDA22DF50E4ECA5
:1002F80012F02B2A040E2B64F3D709D0000E2B6EB4
:10030800160EE4EC12F02B2A040E2B64F9D7010E1A
:1003180000018B6F000E3B6E000E3A6E020E566E99
:100328000FD0000E8B6F000E3B6E000E3A6E000E63
:100338002B6E150EE4EC12F02B2A040E2B64F9D761
:10034800F50E00017219D8A4A2D7020E5618D8A427
:100358009ED7010E456E9BD7000E466E98D7ACA26D
:1003680003D0AC92AC98AC8828C0DAFF27C0D9FF7C
:10037800579211006FEF10F0000E0101166F320E48
:10038800156F000E106F000E0F6F000E176F010E25
:100398000C6F000E016F000E006F000E0E6F000E46
:1003A8000D6F000E126F010E116FF29E15EC11F019
:1003B80091EC12F05FEC12F03EEC12F0D08EA58AB0
:1003C800F28EF28E000E0001E46F500EE36F000E05
:1003D800E26F600EE16F000EE06F800EDF6F000EBF
:1003E800DE6F700EDD6F000EDC6FA00EDB6F000E8F
:1003F800DA6F900ED96FE3C0A4F0E4C0A5F0000E48
:10040800A5BFFF0EA66FA76FA8EC10F00001A4C04F
:10041800D5F0A5C0D6F0000ED6BFFF0ED76FD86FA7
:10042800D7C0D8F0D6C0D7F0D5C0D6F0D56BE1C0CC
:10043800A4F0E2C0A5F0000EA5BFFF0EA66FA76F3F
:10044800A8EC10F00001A4C0AAF0A5C0ABF0000E03
:10045800ABBFFF0EAC6FAD6FAA51D527AB51D623FA
:10046800AC51D723AD51D823DBC0A4F0DCC0A5F034
:10047800000EA5BFFF0EA66FA76FA8EC10F0000135
:10048800A4C0D1F0A5C0D2F0000ED2BFFF0ED36F2A
:10049800D46FD3C0D4F0D2C0D3F0D1C0D2F0D16BD6
:1004A800D9C0A4F0DAC0A5F0000EA5BFFF0EA66F54
:1004B800A76FA8EC10F00001A4C0AAF0A5C0ABF08B
:1004C800000EABBFFF0EAC6FAD6FAA51D127AB5179
:1004D800D223AC51D323AD51D423DFC0A4F0E0C064
:1004E800A5F0000EA5BFFF0EA66FA76FA8EC10F031
:1004F8000001A4C0CDF0A5C0CEF0000ECEBFFF0E07
:10050800CF6FD06FCFC0D0F0CEC0CFF0CDC0CEF07F
:10051800CD6BDDC0A4F0DEC0A5F0000EA5BFFF0EB8
:10052800A66FA76FA8EC10F00001A4C0AAF0A5C0A0
:10053800ABF0000EABBFFF0EAC6FAD6FAA51CD276D
:10054800AB51CE23AC51CF23AD51D023D8BF1DD052
:10055800D851D71106E1100ED55D270ED659D8A06F
:1005680014D0000ED56F000ED66F000ED76F000E98
:10057800D86F010ED5254B6E000ED6214C6E000E9D
:10058800D7214D6E000ED8214E6ED4BF11D0D45154
:10059800D31106E1100ED15D270ED259D8A008D08C
:1005A800000ED16F000ED26F000ED36F000ED46F05
:1005B800D0BF11D0D051CF1106E1100ECD5D270E5E
:1005C800CE59D8A008D0000ECD6F000ECE6F000E09
:1005D800CF6F000ED06FCDC08CF0CEC08DF0CFC0E5
:1005E8008EF0D0C08FF0100E906F270E916F000E16
:1005F800926F000E936F44EC11F00001D1518C25DD
:10060800806FD2518D21816FD3518E21826FD45149
:100618008F21836F000E8D6F640E8C6F04EC12F0C7
:10062800D5C08CF0D6C08DF0D7C08EF0D8C08FF072
:100638000A0E0001906F000E916F000E926F000E6F
:10064800936F44EC0FF0300E00018C25366E000ECF
:100658008D21376E640E906F000E916F000E926FB1
:10066800000E936FD5C08CF0D6C08DF0D7C08EF039
:10067800D8C08FF044EC0FF08CC096F08DC097F086
:100688008EC098F08FC099F00A0E00019A6F000E84
:100698009B6F000E9C6F000E9D6F77EC0EF0300E76
:1006A80000019625346E000E9721356EE80E906F86
:1006B800030E916F000E926F000E936FD5C08CF0F1
:1006C800D6C08DF0D7C08EF0D8C08FF044EC0FF0B4
:1006D8008CC096F08DC097F08EC098F08FC099F0BE
:1006E800640E00019A6F000E9B6F000E9C6F000E47
:1006F8009D6F77EC0EF0300E00019625326E000EDD
:100708009721336ED5C096F0D6C097F0D7C098F031
:10071800D8C099F0E80E9A6F030E9B6F000E9C6F7D
:10072800000E9D6F77EC0EF0300E00019625306EAE
:10073800000E9721316EF0EC0DF09CEC12F085EC78
:1007480012F0B1EC12F02CEC12F00001B251B3111E
:10075800B411B511D8B402D084BEF5D78A9614EC7A
:1007680013F0000E436E000E426E000E0001896FFA
:10077800F29E100EA46F000EA56F000EA66F000E5D
:10078800A76FA8EC10F00001A45101011D6F200E05
:100798000001A46F000EA56F000EA66F000EA76FD4
:1007A800A8EC10F00001A45101011E6F300E0001E9
:1007B800A46F000EA56F000EA66F000EA76FA8EC21
:1007C80010F00001A4510101206F400E0001A46F38
:1007D800000EA56F000EA66F000EA76FA8EC10F014
:1007E8000001A45101011F6FF28EC80E1D6517D0BC
:1007F8001E0E1D6F000E146F1E0E136FF29E100E4C
:100808000001A46F000EA56F000EA66F000EA76F63
:100818001DC1A8F0A96B70EC11F0F28E03D01DC1B8
:1008280013F1146BC80E01011E6517D0320E1E6F2E
:10083800000E166F320E156FF29E200E0001A46F87
:10084800000EA56F000EA66F000EA76F1EC1A8F0C0
:10085800A96B70EC11F0F28E03D01EC115F1166B66
:10086800C80E0101206517D0050E206F000E00018B
:10087800C76F050EC66FF29E300EA46F000EA56FEF
:10088800000EA66F000EA76F20C1A8F0A96B70EC30
:1008980011F0F28E04D020C1C6F00001C76BC80E5B
:1008A80001011F6517D0000E1F6F000E106F000E9C
:1008B8000F6FF29E400E0001A46F000EA56F000E90
:1008C800A66F000EA76F1FC1A8F0A96B70EC11F0FE
:1008D800F28E03D01FC10FF1106B510E0001606F33
:1008E8001DC161F01EC162F020C163F01FC164F038
:1008F80011D183B603D01AEC13F002D014EC13F024
:1009080084BC23D0000E0101036F010E026F03BFE8
:1009180006D003510FE1060E025DD8B00BD0030ECE
:1009280000018D6FE80E8C6F04EC12F00101024B90
:10093800032BEDD717EC13F0010E00018D6F2C0E71
:100948008C6F04EC12F014EC13F08A96010E416ED1
:10095800300E0001CC6F83A4F9D7000E416E83A43A
:10096800FED7000E00018D6F640E8C6F04EC12F040
:1009780083A4FED783A4EAD78A86000E00018D6F70
:10098800640E8C6F04EC12F083B272D01E0E00015C
:10099800BA6F000EBB6F000EBC6F000EBD6F83A652
:1009A8001AEC13F084BC23D0000E0101056F010E70
:1009B800046F05BF06D005510FE1060E045DD8B0DF
:1009C8000BD0030E00018D6FE80E8C6F04EC12F053
:1009D8000101044B052BEDD717EC13F0010E0001B4
:1009E8008D6F2C0E8C6F04EC12F014EC13F081B0A8
:1009F80014EC13F00001BDBF07D0BD51BC11BB11F1
:100A080007E1BA05D8B004D0010E416E330ECC6FA1
:100A18008A86000E8D6F640E8C6F04EC12F08D8A3E
:100A280013C18CF014C18DF018EC12F08D9A15C119
:100A38008CF016C18DF018EC12F083B202D083B49A
:100A4800AED783A21AD0000E0101126F010E116FEA
:100A5800330E0001CC19D8A410D0000E416E1E0E22
:100A6800BA6F000EBB6F000EBC6F000EBD6F05D0D5
:100A7800000E0101126F010E116F8A96000E01011E
:100A88000C6F83A61AEC13F084BC24D0000E01016D
:100A9800076F010E066F07BF06D007510FE1060E5C
:100AA800065DD8B00BD0030E00018D6FE80E8C6F79
:100AB80004EC12F00101064B072BEDD717EC13F0ED
:100AC800010E00018D6F2C0E8C6F04EC12F014ECEB
:100AD80013F017D081A015D0820E0001AA6FDD0E89
:100AE800E82EFED7AA2FFCD700D081B014EC13F063
:100AF800320E0001BE6F000EBF6F000EC06F000EF9
:100B0800C16F01010C51D8A405D0000E0001C56FBA
:100B1800000EC46F01010C51D8A4EBD684A602D0F4
:100B2800000E01D0010E0001866F8605D8A403D0FF
:100B3800010E0101176F83A40AD001011705D8A47B
:100B480006D000018851D8A402D08A8619D083A47F
:100B580008D001011751D8B404D000018805D8A4E1
:100B68000FD08A9683B40CD000018751D8A408D03E
:100B7800010E416E300ECC6F83A4FAD7000E416E81
:100B880083B619D01AEC13F00001C1BF07D0C151C8
:100B9800C011BF1156E1BE05D8B053D0010E416E49
:100BA800310ECC6F320EBE6F000EBF6F000EC06FDD
:100BB800000EC16F46D083A644D083A60BD0320E58
:100BC8000001BE6F000EBF6F000EC06F000EC16F38
:100BD800000E416E84BC23D0000E0101096F010E86
:100BE800086F09BF06D009510FE1060E085DD8B09D
:100BF8000BD0030E00018D6FE80E8C6F04EC12F021
:100C08000101084B092BEDD717EC13F0010E000179
:100C18008D6F2C0E8C6F04EC12F014EC13F081A085
:100C280010D000018A51D8A40CD0820E0001AA6FFE
:100C3800DD0EE82EFED7AA2FFCD700D081B014EC29
:100C480013F081A40BD0000E0001C56F000EC46F15
:100C5800000E01010E6F000E0D6F56D001010D51EF
:100C68000E11D8A40BD0000E0001C56F140EC46F6E
:100C7800000E01010E6F010E0D6F11D00D050E1142
:100C8800D8A40DD00001C451C511D8A408D0000EB5
:100C9800D56F000ED66F000ED76F000ED86F000EFE
:100CA8000001886F000E416E320EBE6F000EBF6FDE
:100CB800000EC06F000EC16F1E0E476E000E486E0C
:100CC800000E496E000E4A6E1E0EBA6F000EBB6F04
:100CD800000EBC6F000EBD6F1E0EB66F000EB76F14
:100CE800000EB86F000EB96F1E0EB26F000EB36F14
:100CF800000EB46F000EB56F1E0EAE6F000EAF6F14
:100D0800000EB06F000EB16F83A283A440D1000122
:100D18008751D8A43CD183B245D18A861E0EBA6FBA
:100D2800000EBB6F000EBC6F000EBD6F01011151AC
:100D38001211D8A404D0000E016F010E006F000537
:100D48000111D8A4A7D0010E0001D527000ED62383
:100D5800D723D823010ED127000ED223D323D4239F
:100D6800000E546E010E536E000E0101016F000E4D
:100D7800006F000E126F020E116F0001D4BF17D062
:100D8800D451D31106E1100ED15D270ED259D8A047
:100D98000ED0000ED16F000ED26F000ED36F000E72
:100DA800D46F010ECD27000ECE23CF23D023F29E81
:100DB800D151846F856BD9C0A4F0DAC0A5F0000EBC
:100DC800A5BFFF0EA66FA76F84C0A8F085C0A9F0C5
:100DD80070EC11F0D1C096F0D2C097F0D3C098F063
:100DE800D4C099F0000E00019A6F010E9B6F000E9F
:100DF8009C6F000E9D6F77EC0EF000019651846F8A
:100E0800856BDBC0A4F0DCC0A5F0000EA5BFFF0E0B
:100E1800A66FA76F84C0A8F085C0A9F070EC11F088
:100E28000001CD51846F856BDDC0A4F0DEC0A5F054
:100E3800000EA5BFFF0EA66FA76F84C0A8F085C0DF
:100E4800A9F070EC11F0CDC096F0CEC097F0CFC0ED
:100E580098F0D0C099F0000E00019A6F010E9B6FB8
:100E6800000E9C6F000E9D6F77EC0EF000019651FE
:100E7800846F856BDFC0A4F0E0C0A5F0000EA5BFAD
:100E8800FF0EA66FA76F84C0A8F085C0A9F070EC0C
:100E980011F0F28E83A61AEC13F084BC23D0000E56
:100EA80001010B6F010E0A6F0BBF06D00B510FE14A
:100EB800060E0A5DD8B00BD0030E00018D6FE80E48
:100EC8008C6F04EC12F001010A4B0B2BEDD717ECD9
:100ED80013F0010E00018D6F2C0E8C6F04EC12F0D4
:100EE80014EC13F081B083A610D000018A51D8A465
:100EF8000CD0820E0001AA6FDD0EE82EFED7AA2FB5
:100F0800FCD700D081B014EC13F00001BDBF07D0AE
:100F1800BD51BC11BB1107E1BA05D8B004D0010E10
:100F2800416E330ECC6F8A86000E8D6F640E8C6F07
:100F380004EC12F08D8A13C18CF014C18DF018ECFA
:100F480012F08D9A15C18CF016C18DF018EC12F0C4
:100F580083A283A404D000018751D8B49BD783A26D
:100F680014D0000E0101126F010E116F330E000133
:100F7800CC19D8A40AD0000E416E1E0EBA6F000E0E
:100F8800BB6F000EBC6F000EBD6F8A960BD083A29C
:100F980009D000018751D8A405D0000E0101126FB5
:100FA800010E116F00018B05D8B46CD185D18A511F
:100FB800D8A47ED1010E8A6FF10E7219D8A40ED072
:100FC800010E866F010E0101176F83A407D0170564
:100FD800D8A404D000018851D8B48A86000E000134
:100FE8008A6F66D18A51D8A463D1010E8A6F72C004
:100FF8001DF1F29E100EA46F000EA56F000EA66FD5
:10100800000EA76F1DC1A8F0A96B70EC11F0F28E4D
:101018001DC113F10101146B13C161F0DFD78A51AF
:10102800D8A446D1010E8A6F72C01EF1F29E200E1E
:10103800A46F000EA56F000EA66F000EA76F1EC14D
:10104800A8F0A96B70EC11F0F28E1EC115F1010128
:10105800166B15C162F0C2D78A51D8A429D1010EE6
:101068008A6F72C020F1F29E300EA46F000EA56F39
:10107800000EA66F000EA76F20C1A8F0A96B70EC38
:1010880011F0F28E20C1C6F00001C76BC6C063F034
:10109800A5D78A51D8A40CD1010E8A6F72C01FF14E
:1010A800F29E400EA46F000EA56F000EA66F000EF4
:1010B800A76F1FC1A8F0A96B70EC11F0F28E1FC1C9
:1010C8000FF10101106B0FC164F088D78A51D8A4C1
:1010D800EFD07251D8A467D0C805C911D8A463D07D
:1010E800010E8A6FF29E100EA46F000EA56F000EFF
:1010F800A66F000EA76FA8EC10F00001A451010123
:101108001D6F200E0001A46F000EA56F000EA66FC4
:10111800000EA76FA8EC10F00001A45101011E6F8A
:10112800300E0001A46F000EA56F000EA66F000E12
:10113800A76FA8EC10F00001A4510101206F400E28
:101148000001A46F000EA56F000EA66F000EA76F1A
:10115800A8EC10F00001A45101011F6F510E00010D
:10116800606F1DC161F01EC162F020C163F01FC134
:1011780064F0000E8D6F640E8C6F04EC12F0000E9C
:1011880001011C6F040E1C6501D00CD0600E1C25DB
:10119800D96EDA6A000EDA22DF50DDEC12F00101B6
:1011A8001C2BF0D7F28EBFEC11F018D78A51D8A4B7
:1011B8007FD07251D8A4F7D7C805C911D8A4F3D7DE
:1011C800010E8A6FF29E900EA46F000EA56F000E9E
:1011D800A66F000EA76FA8EC10F00001A451010142
:1011E800186FA00E0001A46F000EA56F000EA66F69
:1011F800000EA76FA8EC10F00001A4510101196FAF
:10120800700E0001A46F000EA56F000EA66F000EF1
:10121800A76FA8EC10F00001A45101011A6F800E0D
:101228000001A46F000EA56F000EA66F000EA76F39
:10123800A8EC10F00001A45101011B6F520E00012F
:10124800606F18C161F019C162F01AC163F01BC167
:1012580064F0000E8D6F640E8C6F04EC12F0000EBB
:1012680001011C6F040E1C6501D09CD7600E1C2563
:10127800D96EDA6A000EDA22DF50DDEC12F00101D5
:101288001C2BF0D77151440AD8B491D6150AD8B49A
:101298001DD7030AD8B48AD7360AD8B4A3D6010A08
:1012A800D8B4BDD6030AD8B4D7D6010AD8B4F1D673
:1012B800000E8B6F000E466E010E566E8605D8A482
:1012C8005DD08751D8A45AD08A51D8A457D0010EDE
:1012D8008A6F83B084BE47D0010E8D6F2C0E8C6F41
:1012E80004EC12F0010E0001876F08EC13F0000EF9
:1012F8000001C36F320EC26F000E866F000E886F3A
:10130800000E416E320EBE6F000EBF6F000EC06F32
:10131800000EC16F1E0E476E000E486E000E496E1D
:10132800000E4A6E1E0EBA6F000EBB6F000EBC6F29
:10133800000EBD6F1E0EB66F000EB76F000EB86FB1
:10134800000EB96F1E0EB26F000EB36F000EB46FB1
:10135800000EB56F1E0EAE6F000EAF6F000EB06FB1
:10136800000EB16F91D084AE8FD0010E886F350E0C
:10137800556E84BEFAD7000E886F86D08705D8A42C
:1013880027D083B010D020C1C6F0C76B020E876F7C
:101398000FC18CF010C18DF004EC12F00BEC13F0BF
:1013A8001E0E00010DD083A06FD0B651B711B81131
:1013B800B911D8A469D0010E886F340E556E1E0E6F
:1013C800B66F000EB76F000EB86F000EB96F5CD025
:1013D800020E8719D8A412D0C651C711D8A40ED0AE
:1013E800030E876F0EEC13F0010111051211D8A43A
:1013F8004BD0000E126F000E116F46D0030E8719E6
:10140800D8A42AD084BE19D0000E876F000E01011F
:10141800176F0BEC13F005D0010E0001886F360E24
:10142800556E84A6F9D71E0E0001B26F000EB36F79
:10143800000EB46F000EB56F27D084AE25D0B25120
:10144800B311B411B511D8A41FD0010E886F350E91
:10145800556E000E876F18D08751D8A415D00BECA5
:1014680013F0000E0001C36F320EC26F000E8A6FB8
:1014780084AE04D0010E886F350E05D083B004D039
:10148800010E886F340E556E00018705D8B404D05C
:10149800030E8719D8A410D085BA0ED00BEC13F020
:1014A80000018705D8A403D008EC13F005D0030E7B
:1014B8008719D8B40EEC13F00001C251C311D8A497
:1014C8008EEF05F08705D8A48EEF05F011EC13F028
:1014D8000EEC13F0030E0001876F000EC36F320E7F
:1014E800C26F1E0EB26F000EB36F000EB46F000E07
:1014F800B56F8EEF05F04B500001D5190BE14C503C
:10150800D61908E14D50D71905E14E50D819D8A47D
:1015180094D067D192D0D5512C6E2D6AE1C019F0C4
:10152800E2C01AF0000E1ABEFF0E1B6E1C6E2CC015
:101538001DF02DC01EF09AEC11F02E4A2F2A91D0E2
:10154800E3C019F0E4C01AF0000E1ABEFF0E1B6EBD
:101558001C6EE1EC10F019C01FF01AC020F0000E4C
:1015680020BEFF0E216E226ED5C00BF0D6C00CF047
:10157800D7C00DF0D8C00EF0000E0F6E010E106E21
:10158800000E116E000E126EDEEC0EF0FF0E0B1444
:10159800236E000E0C14246E000E0D14256E000E22
:1015A8000E14266E1F5023180AE12050241807E154
:1015B8002150251804E122502618D8B424D0D5C0CB
:1015C8000BF0D6C00CF0D7C00DF0D8C00EF0000E4E
:1015D8000F6E010E106E000E116E000E126EDEEC14
:1015E8000EF00B502C6E2D6AE3C019F0E4C01AF00F
:1015F800000E1ABEFF0E1B6E1C6E2CC01DF02DC0F7
:101608001EF09AEC11F0D5C04BF0D6C04CF0D7C004
:101618004DF0D8C04EF0000E2F6E000E2E6E21D069
:10162800000E2F6E000E2E6ED5C04BF0D6C04CF0BB
:10163800D7C04DF0D8C04EF014D02EC01FF02FC028
:1016480020F02050000AD8A4EBD71F50000AD8B4C5
:1016580062D7010AD8B474D7030AD8B4E1D7010A0B
:10166800DFD7D5C001F0D6C002F0D7C003F0D8C08C
:1016780004F00A0E056E000E066E000E076E000ED0
:10168800086E9BEC0FF0300E0124366E000E02201F
:10169800376E640E056E000E066E000E076E000EA5
:1016A800086ED5C001F0D6C002F0D7C003F0D8C08C
:1016B80004F09BEC0FF001C00BF002C00CF003C06B
:1016C8000DF004C00EF00A0E0F6E000E106E000E24
:1016D800116E000E126EDEEC0EF0300E0B24346E1E
:1016E800000E0C20356EE80E056E030E066E000E19
:1016F800076E000E086ED5C001F0D6C002F0D7C044
:1017080003F0D8C004F09BEC0FF001C00BF002C04E
:101718000CF003C00DF004C00EF0640E0F6E000E46
:10172800106E000E116E000E126EDEEC0EF0300E12
:101738000B24326E000E0C20336ED5C00BF0D6C0D1
:101748000CF0D7C00DF0D8C00EF0E80E0F6E030EE7
:10175800106E000E116E000E126EDEEC0EF0300EE2
:101768000B24306E000E0C20316E3BD053C001F0BC
:1017780054C002F036C003F037C004F0FEEC0CF0A1
:10178800534A542A120053C001F054C002F034C026
:1017980003F035C004F0FEEC0CF0F2D753C001F0B2
:1017A80054C002F032C003F033C004F0FEEC0CF079
:1017B800E7D753C001F054C002F030C003F031C085
:1017C80004F0FEEC0CF0000E546E010E536E000E89
:1017D800446E1200000E546E010E536E000E446EDD
:1017E800120053C01FF054C020F02050000AD8A4A3
:1017F800F1D71F50010AD8B4B9D7030AD8B4C3D750
:10180800010AD8B4CBD7070AD8B4D3D7E3D711D0B5
:101818008B9A8B8606D08B8A8B868B9803D08B8A83
:101828008B968B888B84ACD08B8A8B868B888B9499
:10183800A7D08CC090F08DC091F000019151000AA2
:10184800D8A49ED09051010AD8B4E2D7030AD8B4DC
:10185800E2D7010AD8B4E3D7070AD8B4E5D790D0BD
:101868008A988B928992899A8B908A9A8984898896
:1018780012008A888B928992898A8B808A8A8984C5
:10188800898812008A988B928982899A8B908A8A91
:101898008994898812008A988B928992899A8B8078
:1018A8008A8A8994898812008A888B928992898A7F
:1018B8008B808A9A8994898812008A988B82899267
:1018C800899A8B808A9A8994898812008A988B824F
:1018D8008992899A8B908A9A8994898812008A9821
:1018E8008B928992898A8B808A8A89848988120056
:1018F8008A988B928992899A8B908A9A89948988F6
:1019080012008A988B928992898A8B808A9A899404
:10191800898812008A888B828982899A8B908A9A10
:101928008984898812008A988B828982899A8B9007
:101938008A9A8994898812008A888B828982898AFE
:101948008B808A8A8994898812008A888B82898206
:10195800898A8B808A8A8984898812008A888B92EE
:101968008992899A8B908A9A8984898812008A98A0
:101978008B928982899A8B908A8A89948998120095
:101988008EC090F08FC091F09151000AD8A4DDD795
:101998009051200AD8B4D9D70D0AD8B4CDD71D0A8A
:1019A800D8B45ED7010AD8B464D7030AD8B46AD7C2
:1019B800010AD8B470D7070AD8B476D7010AD8B4C0
:1019C8007CD7030AD8B482D7010AD8B488D70F0ABB
:1019D800D8B48ED7010AD8B494D77C0AD8B4A3D780
:1019E800090AD8B497D71C0AD8B4B8D7010AD8B40A
:1019F800BED7ABD711D08B9A8B8606D08B8A8B86B5
:101A08008B9803D08B8A8B968B888B84ABD08B8AF0
:101A18008B868B888B94A6D001C005F002C006F097
:101A28000650000AD8A49ED00550010AD8B4E3D7BE
:101A3800030AD8B4E3D7010AD8B4E4D7070AD8B45C
:101A4800E6D790D08A988B928992899A8B908A9AB5
:101A58008984898812008A888B928992898A8B80E6
:101A68008A8A8984898812008A988B928982899ABD
:101A78008B908A8A8994898812008A988B92899295
:101A8800899A8B808A8A8994898812008A888B929D
:101A98008992898A8B808A9A8994898812008A987F
:101AA8008B828992899A8B808A9A89948988120074
:101AB8008A988B828992899A8B908A9A8994898844
:101AC80012008A988B928992898A8B808A8A898463
:101AD800898812008A988B928992899A8B908A9A1F
:101AE8008994898812008A988B928992898A8B8036
:101AF8008A9A8994898812008A888B828982899A2D
:101B08008B908A9A8984898812008A988B82898224
:101B1800899A8B908A9A8994898812008A888B82FC
:101B28008982898A8B808A8A8994898812008A881E
:101B38008B828982898A8B808A8A89848988120023
:101B48008A888B928992899A8B908A9A89848988C3
:101B580012008A988B928982899A8B908A8A8994B2
:101B68008998120003C005F004C006F00650000A68
:101B7800D8A4DDD70550200AD8B4D9D70D0AD8B4CF
:101B8800CDD71D0AD8B45ED7010AD8B464D7030AE2
:101B9800D8B46AD7010AD8B470D7070AD8B476D7A8
:101BA800010AD8B47CD7030AD8B482D7010AD8B4BA
:101BB80088D70F0AD8B48ED7010AD8B494D77C0A2C
:101BC800D8B4A3D7090AD8B497D71C0AD8B4B8D7B9
:101BD800010AD8B4BED7ABD7000E0001956F050E29
:101BE800946F000E9B6F010E9A6F000E996F000E96
:101BF800986F000E976F000E966F52D09AC08CF0B7
:101C08009BC08DF0000E8F6F200E8E6F0BEC0CF0CA
:101C180000019A4B9B2B3ED09AC08CF09BC08DF054
:101C2800000E8F6F330E8E6F0BEC0CF0F1D79AC04D
:101C38008CF09BC08DF0000E8F6F510E8E6F0BECE9
:101C48000CF0E6D784A6DAD79AC08CF09BC08DF04A
:101C5800000E8F6F500E8E6F0BEC0CF0D9D7000E64
:101C68009B6F010E9A6F16D09AC092F09BC093F0AA
:101C78009351000AD8A4F3D79251010AD8B4BED719
:101C8800030AD8B4C9D7010AD8B4D1D7070AD8B437
:101C9800D9D7E5D794C08CF095C08DF004EC12F03C
:101CA80000019BBFE1D79B5104E1050E9A5DD8A0C6
:101CB800DBD7964B972B97BFF3D7975104E1060EC6
:101CC800965DD8A0EDD7000E9B6F010E9A6F984BCA
:101CD800992B99BF8ED7995105E1320E985DD8B0EE
:101CE800120087D71200000E00019F6F9DAF0AD027
:101CF8009D1F9C1F9B1F9A6D000E9B239C239D2359
:101D0800010E9F6F99AF0AD0991F981F971F966D64
:101D1800000E972398239923010E9F1B000EA06F96
:101D2800000EA16F000EA26F000EA36F9A519B11B7
:101D38009C119D11D8B42AD0010E9E6F06D0D89060
:101D48009A379B379C379D379E2B9DAFF8D7D890F5
:101D5800A037A137A237A3379A51965D9B5197595F
:101D68009C5198599D519959D8A009D09A51965F7C
:101D78009B51975B9C51985B9D51995BA081D89032
:101D88009D339C339B339A339E2FE1D79F51D8B410
:101D980008D0A31FA21FA11FA06D000EA123A2237C
:101DA800A323A0C096F0A1C097F0A2C098F0A3C04A
:101DB80099F01200000E146E12AE0AD0121E111EF7
:101DC800101E0F6C000E102211221222010E146E2A
:101DD8000EAE0AD00E1E0D1E0C1E0B6C000E0C2231
:101DE8000D220E22010E141A000E156E000E166E2C
:101DF800000E176E000E186E0F50101011101210F2
:101E0800D8B42AD0010E136E06D0D8900F361036EB
:101E180011361236132A12AEF8D7D8901536163660
:101E2800173618360F500B5C10500C5811500D58BF
:101E380012500E58D8A009D00F500B5E10500C5AF3
:101E480011500D5A12500E5A1580D8901232113274
:101E580010320F32132EE1D71450D8B408D0181E00
:101E6800171E161E156C000E16221722182215C0F2
:101E78000BF016C00CF017C00DF018C00EF01200D1
:101E8800000E0001956F8FAF0AD08F1F8E1F8D1F18
:101E98008C6D000E8D238E238F23010E956F93AFCB
:101EA80008D0931F921F911F906D000E91239223CB
:101EB80093239051911192119311D8B424D0010E0B
:101EC800946F06D0D8909037913792379337942BE8
:101ED80093AFF8D790518C5D91518D5992518E598D
:101EE80093518F59D8A008D090518C5F91518D5B38
:101EF80092518E5B93518F5BD89093339233913389
:101F08009033942FE7D79551D8B408D08F1F8E1FE0
:101F18008D1F8C6D000E8D238E238F238CC08CF02B
:101F28008DC08DF08EC08EF08FC08FF01200000E25
:101F38000A6E04AE0AD0041E031E021E016C000EB7
:101F4800022203220422010E0A6E08AE08D0081EDF
:101F5800071E061E056C000E0622072208220550E1
:101F6800061007100810D8B424D0010E096E06D048
:101F7800D8900536063607360836092A08AEF8D747
:101F88000550015C06500258075003580850045881
:101F9800D8A008D00550015E0650025A0750035ACF
:101FA8000850045AD8900832073206320532092EF2
:101FB800E7D70A50D8B408D0041E031E021E016CCD
:101FC800000E02220322042201C001F002C002F026
:101FD80003C003F004C004F0120028D03CC001F094
:101FE8003DC002F0000E046E200E036EFEEC0CF0F5
:101FF8003C4A3D2A12003CC001F03DC002F007C037
:1020080003F008C004F0FEEC0CF0F2D73CC001F07D
:102018003DC002F0000E046E4C0E036EFEEC0CF098
:10202800E7D7000E3D6E010E3C6E12003CC009F071
:102038003DC00AF00A50000AD8A4F3D70950010A93
:10204800D8B4CCD7030AD8B4D6D7010AD8B4DED7C7
:10205800070AD8B4C3D7E5D728D03CC001F03DC0A3
:1020680002F0000E046E200E036EFEEC0CF03C4AEB
:102078003D2A12003CC001F03DC002F007C003F049
:1020880008C004F0FEEC0CF0F2D73CC001F03DC0F3
:1020980002F0000E046E450E036EFEEC0CF0E7D75E
:1020A800000E3D6E010E3C6E12003CC009F03DC0B2
:1020B8000AF00A50000AD8A4F3D70950010AD8B484
:1020C800CCD7030AD8B4D6D7010AD8B4DED7070AC2
:1020D800D8B4C3D7E5D79E0EF66E240EF76E000E61
:1020E800F86E00EEAEF010EE1FF00900F5CFEEFF2F
:1020F800E550E150FAE19C0EF66E250EF76E000EE3
:10210800F86E00EE47F010EE10F00900F5CFEEFF84
:10211800E550E150FAE101EE21F0100EEE6AE80612
:10212800FDE100EE60F02C0EEE6AE806FDE100EE3F
:102138002CF01B0EEE6AE806FDE157905792000E50
:10214800F86E0001C0EF01F0F4EC12F0000E00018F
:102158008D6FA00E79EC12F0A4C096F0A5C097F090
:10216800A6C098F0A7C099F0000E00019A6F010E62
:102178009B6F000E9C6F000E9D6F77EC0EF00001B8
:102188009651D6EC12F00001A451D6EC12F0F8ECFE
:1021980012F0010E00018D6FA00E79EC12F0000E06
:1021A800D8EC11F08DC0A8F08EC0A9F0F0EC12F0B8
:1021B800A8C0A4F0A9C0A5F0120000EC13F0000E0E
:1021C800026EA00EBBEC12F019C00BF01AC00CF096
:1021D8001BC00DF01CC00EF0000E0F6E010E106E2D
:1021E800000E116E000E126EDEEC0EF00B50EAECD3
:1021F80012F01950EAEC12F004EC13F0010E026E22
:10220800A00EBBEC12F0000EEFEC11F002C01DF0B6
:1022180003C01EF0FCEC12F01DC019F01EC01AF02D
:102228001200000E806E000E896EC29EC29CC18E86
:10223800C19CC19AC188C196C184C192C190C0880D
:10224800C190C182C184C186C188C098C280000E75
:10225800926E050E936E800E946E6F0E956ED90E6B
:10226800966E200E976E050E986E8A968B948B96B6
:102278008B988B9A838A838C8D9A8E9E8E9C120063
:10228800000E0001946F000E956F000E966F000E01
:10229800976F8CA108D09051942791519523925112
:1022A800962393519723D890903791379237933745
:1022B800D8908F338E338D338C338C518D118E1192
:1022C8008F11D8A4E6D794C08CF095C08DF096C035
:1022D8008EF097C08FF01200F4EC12F0000E00019F
:1022E8008D6FA00E79EC12F0A4C096F0A5C097F0FF
:1022F800A6C098F0A7C099F0000E00019A6F010ED1
:102308009B6F000E9C6F000E9D6F77EC0EF0000126
:102318009651D6EC12F00001A451D6EC12F000014F
:10232800A851D6EC12F0F0EC12F0120000EC13F009
:10233800000E026EA00EBBEC12F019C00BF01AC012
:102348000CF01BC00DF01CC00EF0000E0F6E010E3D
:10235800106E000E116E000E126EDEEC0EF00B50B9
:10236800EAEC12F01950EAEC12F01D50EAEC12F007
:10237800FCEC12F01200000E00018D6F000E8C6F45
:10238800600E8C25D96E000E8D21DA6E000EDF6E80
:102398008C4B8D2B8DBFF4D78D5105E1100E8C5DC4
:1023A800D8B01200EDD7120000018F6FA7EC12F021
:1023B8006B86A7EC12F06FCF90F0A7EC12F000013B
:1023C8008F51D8B402D06B9A01D06B8A6B8890C0B9
:1023D8008DF08E6B1200046EC5EC12F06B86C5ECA6
:1023E80012F06FCF05F0C5EC12F00450D8B402D04B
:1023F8006B9A01D06B8A6B8805C002F0036A1200E1
:102408000DD0030E00018E6F970EE82EFED78E2F8B
:10241800FCD700D000018C07D8A08D0700018C5193
:102428008D11D8B41200EDD70DD01A0E00018E6FA1
:10243800F80EE82EFED78E2FFCD700F000018C078F
:10244800D8A08D0700018C518D11D8B41200EDD79A
:1024580084AE0AD084AE12000EEC13F0350E556E21
:10246800010E0001886F1200000E0001876F0BEC4F
:1024780013F01200A898A89CA88A9C9C9C88A89EE7
:102488009C869C8E7C96A884A38AA398190EAB6E12
:10249800000E7D6E12001E0000001E0000001E00CF
:1024A80000001E0000003200000032001400050089
:0524B8000100010030ED
:1024BE008B848B868B888B8A898289848988898A8A
:1024CE008B808B828A888A8A12009CA207D09C9865
:1024DE00AACF01F0AACF01F09C8802D0AACF01F0BA
:1024EE000150120000018E6F8EC08FF000018D51D1
:1024FE008F27A7EC12F08FC06FFF1200310ECD6E3A
:10250E009E0ECF6E570ECE6E9E909D809F80000EBB
:10251E00426E1200958A958C280E6C6E000E6B6EB4
:10252E00270E6E6EC00E6D6E1200C60ED56EF90EB3
:10253E00D76EE40ED66EF28AF294000E436E12003F
:10254E006BCF8CF01F0E00018C17D8A4F9D76DA499
:10255E001200F6D72A0ECA6ECB689E929D929F826B
:10256E00000E0001896F1200036E03C004F00250CA
:10257E000426C5EC12F004C06FFF12006BCF01F001
:10258E001F0E0116D8A4FAD76DA41200F7D71E009D
:10259E000000FFFF00003200320001003001000198
:1025AE008D6FA7EC12F08DC06FFF120000018C6FC3
:1025BE008CC0A9FFA8B21200FDD7016E01C0A9FF01
:1025CE00A8B21200FDD7026EC5EC12F002C06FFF6A
:1025DE001200A7EC12F06B841200A7EC12F06B80C5
:1025EE001200A7EC12F06B821200C5EC12F06B8495
:1025FE001200C5EC12F06B801200C5EC12F06B826B
:10260E0012008E8E8E9C12008E8E8E8C12008E9EDE
:10261E008E8C12008E8E8E8C12008D848D82120006
:10262E008D848D9212008D948D8212008E8E8E8CE2
:08263E0012008D848D82120050
:067FF800AEF703FBF8F1F7
:00000001FF
